{
  "_format": "hh-sol-artifact-1",
  "contractName": "MyPacks",
  "sourceName": "contracts/MyPacks.sol",
  "abi": [
    {
      "inputs": [],
      "stateMutability": "nonpayable",
      "type": "constructor"
    },
    {
      "inputs": [
        {
          "internalType": "address",
          "name": "have",
          "type": "address"
        },
        {
          "internalType": "address",
          "name": "want",
          "type": "address"
        }
      ],
      "name": "OnlyCoordinatorCanFulfill",
      "type": "error"
    },
    {
      "anonymous": false,
      "inputs": [
        {
          "indexed": true,
          "internalType": "address",
          "name": "account",
          "type": "address"
        },
        {
          "indexed": true,
          "internalType": "address",
          "name": "operator",
          "type": "address"
        },
        {
          "indexed": false,
          "internalType": "bool",
          "name": "approved",
          "type": "bool"
        }
      ],
      "name": "ApprovalForAll",
      "type": "event"
    },
    {
      "anonymous": false,
      "inputs": [
        {
          "indexed": false,
          "internalType": "uint256[]",
          "name": "number",
          "type": "uint256[]"
        }
      ],
      "name": "Number",
      "type": "event"
    },
    {
      "anonymous": false,
      "inputs": [
        {
          "indexed": false,
          "internalType": "uint256",
          "name": "requestId",
          "type": "uint256"
        },
        {
          "indexed": false,
          "internalType": "uint256[]",
          "name": "randomWords",
          "type": "uint256[]"
        }
      ],
      "name": "RequestFulfilled",
      "type": "event"
    },
    {
      "anonymous": false,
      "inputs": [
        {
          "indexed": false,
          "internalType": "uint256",
          "name": "requestId",
          "type": "uint256"
        },
        {
          "indexed": false,
          "internalType": "uint32",
          "name": "numWords",
          "type": "uint32"
        }
      ],
      "name": "RequestSent",
      "type": "event"
    },
    {
      "anonymous": false,
      "inputs": [
        {
          "indexed": true,
          "internalType": "address",
          "name": "operator",
          "type": "address"
        },
        {
          "indexed": true,
          "internalType": "address",
          "name": "from",
          "type": "address"
        },
        {
          "indexed": true,
          "internalType": "address",
          "name": "to",
          "type": "address"
        },
        {
          "indexed": false,
          "internalType": "uint256[]",
          "name": "ids",
          "type": "uint256[]"
        },
        {
          "indexed": false,
          "internalType": "uint256[]",
          "name": "values",
          "type": "uint256[]"
        }
      ],
      "name": "TransferBatch",
      "type": "event"
    },
    {
      "anonymous": false,
      "inputs": [
        {
          "indexed": true,
          "internalType": "address",
          "name": "operator",
          "type": "address"
        },
        {
          "indexed": true,
          "internalType": "address",
          "name": "from",
          "type": "address"
        },
        {
          "indexed": true,
          "internalType": "address",
          "name": "to",
          "type": "address"
        },
        {
          "indexed": false,
          "internalType": "uint256",
          "name": "id",
          "type": "uint256"
        },
        {
          "indexed": false,
          "internalType": "uint256",
          "name": "value",
          "type": "uint256"
        }
      ],
      "name": "TransferSingle",
      "type": "event"
    },
    {
      "anonymous": false,
      "inputs": [
        {
          "indexed": false,
          "internalType": "string",
          "name": "value",
          "type": "string"
        },
        {
          "indexed": true,
          "internalType": "uint256",
          "name": "id",
          "type": "uint256"
        }
      ],
      "name": "URI",
      "type": "event"
    },
    {
      "inputs": [
        {
          "internalType": "address",
          "name": "account",
          "type": "address"
        },
        {
          "internalType": "uint256",
          "name": "id",
          "type": "uint256"
        }
      ],
      "name": "balanceOf",
      "outputs": [
        {
          "internalType": "uint256",
          "name": "",
          "type": "uint256"
        }
      ],
      "stateMutability": "view",
      "type": "function"
    },
    {
      "inputs": [
        {
          "internalType": "address[]",
          "name": "accounts",
          "type": "address[]"
        },
        {
          "internalType": "uint256[]",
          "name": "ids",
          "type": "uint256[]"
        }
      ],
      "name": "balanceOfBatch",
      "outputs": [
        {
          "internalType": "uint256[]",
          "name": "",
          "type": "uint256[]"
        }
      ],
      "stateMutability": "view",
      "type": "function"
    },
    {
      "inputs": [
        {
          "internalType": "address",
          "name": "account",
          "type": "address"
        },
        {
          "internalType": "uint256",
          "name": "id",
          "type": "uint256"
        },
        {
          "internalType": "uint256",
          "name": "value",
          "type": "uint256"
        }
      ],
      "name": "burn",
      "outputs": [],
      "stateMutability": "nonpayable",
      "type": "function"
    },
    {
      "inputs": [
        {
          "internalType": "address",
          "name": "account",
          "type": "address"
        },
        {
          "internalType": "uint256[]",
          "name": "ids",
          "type": "uint256[]"
        },
        {
          "internalType": "uint256[]",
          "name": "values",
          "type": "uint256[]"
        }
      ],
      "name": "burnBatch",
      "outputs": [],
      "stateMutability": "nonpayable",
      "type": "function"
    },
    {
      "inputs": [],
      "name": "contractURI",
      "outputs": [
        {
          "internalType": "string",
          "name": "",
          "type": "string"
        }
      ],
      "stateMutability": "pure",
      "type": "function"
    },
    {
      "inputs": [
        {
          "internalType": "address",
          "name": "wallet",
          "type": "address"
        },
        {
          "internalType": "uint256",
          "name": "_tokenId",
          "type": "uint256"
        }
      ],
      "name": "getCardBalanceOf",
      "outputs": [
        {
          "internalType": "uint256",
          "name": "",
          "type": "uint256"
        }
      ],
      "stateMutability": "view",
      "type": "function"
    },
    {
      "inputs": [
        {
          "internalType": "uint256",
          "name": "_tokenId",
          "type": "uint256"
        }
      ],
      "name": "getCardUri",
      "outputs": [
        {
          "internalType": "string",
          "name": "",
          "type": "string"
        }
      ],
      "stateMutability": "view",
      "type": "function"
    },
    {
      "inputs": [],
      "name": "getNumber",
      "outputs": [
        {
          "internalType": "uint256[]",
          "name": "",
          "type": "uint256[]"
        }
      ],
      "stateMutability": "nonpayable",
      "type": "function"
    },
    {
      "inputs": [
        {
          "internalType": "uint256",
          "name": "_requestId",
          "type": "uint256"
        }
      ],
      "name": "getRequestStatus",
      "outputs": [
        {
          "internalType": "bool",
          "name": "fulfilled",
          "type": "bool"
        },
        {
          "internalType": "uint256[]",
          "name": "randomWords",
          "type": "uint256[]"
        }
      ],
      "stateMutability": "view",
      "type": "function"
    },
    {
      "inputs": [
        {
          "internalType": "address",
          "name": "account",
          "type": "address"
        },
        {
          "internalType": "address",
          "name": "operator",
          "type": "address"
        }
      ],
      "name": "isApprovedForAll",
      "outputs": [
        {
          "internalType": "bool",
          "name": "",
          "type": "bool"
        }
      ],
      "stateMutability": "view",
      "type": "function"
    },
    {
      "inputs": [],
      "name": "lastRequestId",
      "outputs": [
        {
          "internalType": "uint256",
          "name": "",
          "type": "uint256"
        }
      ],
      "stateMutability": "view",
      "type": "function"
    },
    {
      "inputs": [
        {
          "internalType": "uint256",
          "name": "",
          "type": "uint256"
        }
      ],
      "name": "maxCardLimits",
      "outputs": [
        {
          "internalType": "uint256",
          "name": "",
          "type": "uint256"
        }
      ],
      "stateMutability": "view",
      "type": "function"
    },
    {
      "inputs": [
        {
          "internalType": "uint256",
          "name": "amount",
          "type": "uint256"
        }
      ],
      "name": "mint",
      "outputs": [],
      "stateMutability": "nonpayable",
      "type": "function"
    },
    {
      "inputs": [
        {
          "internalType": "uint256",
          "name": "",
          "type": "uint256"
        }
      ],
      "name": "mintedCardTokenIdsPrint",
      "outputs": [
        {
          "internalType": "uint256",
          "name": "",
          "type": "uint256"
        }
      ],
      "stateMutability": "view",
      "type": "function"
    },
    {
      "inputs": [],
      "name": "openPack",
      "outputs": [],
      "stateMutability": "payable",
      "type": "function"
    },
    {
      "inputs": [
        {
          "internalType": "uint256",
          "name": "requestId",
          "type": "uint256"
        },
        {
          "internalType": "uint256[]",
          "name": "randomWords",
          "type": "uint256[]"
        }
      ],
      "name": "rawFulfillRandomWords",
      "outputs": [],
      "stateMutability": "nonpayable",
      "type": "function"
    },
    {
      "inputs": [
        {
          "internalType": "uint256",
          "name": "",
          "type": "uint256"
        }
      ],
      "name": "requestIds",
      "outputs": [
        {
          "internalType": "uint256",
          "name": "",
          "type": "uint256"
        }
      ],
      "stateMutability": "view",
      "type": "function"
    },
    {
      "inputs": [],
      "name": "requestRandomWords",
      "outputs": [
        {
          "internalType": "uint256",
          "name": "requestId",
          "type": "uint256"
        }
      ],
      "stateMutability": "nonpayable",
      "type": "function"
    },
    {
      "inputs": [
        {
          "internalType": "uint256",
          "name": "",
          "type": "uint256"
        }
      ],
      "name": "s_requests",
      "outputs": [
        {
          "internalType": "bool",
          "name": "fulfilled",
          "type": "bool"
        },
        {
          "internalType": "bool",
          "name": "exists",
          "type": "bool"
        }
      ],
      "stateMutability": "view",
      "type": "function"
    },
    {
      "inputs": [
        {
          "internalType": "address",
          "name": "from",
          "type": "address"
        },
        {
          "internalType": "address",
          "name": "to",
          "type": "address"
        },
        {
          "internalType": "uint256[]",
          "name": "ids",
          "type": "uint256[]"
        },
        {
          "internalType": "uint256[]",
          "name": "amounts",
          "type": "uint256[]"
        },
        {
          "internalType": "bytes",
          "name": "data",
          "type": "bytes"
        }
      ],
      "name": "safeBatchTransferFrom",
      "outputs": [],
      "stateMutability": "nonpayable",
      "type": "function"
    },
    {
      "inputs": [
        {
          "internalType": "address",
          "name": "from",
          "type": "address"
        },
        {
          "internalType": "address",
          "name": "to",
          "type": "address"
        },
        {
          "internalType": "uint256",
          "name": "id",
          "type": "uint256"
        },
        {
          "internalType": "uint256",
          "name": "amount",
          "type": "uint256"
        },
        {
          "internalType": "bytes",
          "name": "data",
          "type": "bytes"
        }
      ],
      "name": "safeTransferFrom",
      "outputs": [],
      "stateMutability": "nonpayable",
      "type": "function"
    },
    {
      "inputs": [
        {
          "internalType": "address",
          "name": "operator",
          "type": "address"
        },
        {
          "internalType": "bool",
          "name": "approved",
          "type": "bool"
        }
      ],
      "name": "setApprovalForAll",
      "outputs": [],
      "stateMutability": "nonpayable",
      "type": "function"
    },
    {
      "inputs": [
        {
          "internalType": "bytes4",
          "name": "interfaceId",
          "type": "bytes4"
        }
      ],
      "name": "supportsInterface",
      "outputs": [
        {
          "internalType": "bool",
          "name": "",
          "type": "bool"
        }
      ],
      "stateMutability": "view",
      "type": "function"
    },
    {
      "inputs": [
        {
          "internalType": "uint256",
          "name": "",
          "type": "uint256"
        }
      ],
      "name": "uri",
      "outputs": [
        {
          "internalType": "string",
          "name": "",
          "type": "string"
        }
      ],
      "stateMutability": "view",
      "type": "function"
    },
    {
      "inputs": [],
      "name": "uri",
      "outputs": [
        {
          "internalType": "string",
          "name": "",
          "type": "string"
        }
      ],
      "stateMutability": "pure",
      "type": "function"
    }
  ],
  "bytecode": "0x60a060405260058054600160a01b600160e01b031916611d3160a01b1790557f474e34a077df58807dbe9c96d3c009b23b3c6d0cce433e59bbf5b34f823bc56c600855600980546001600160f01b0319167d8103b0a8a00be2ddc778e6e7eaa21791cd364625000000010003000186a01790553480156200007f57600080fd5b506009600a9054906101000a90046001600160a01b0316604051806080016040528060438152602001620056e360439139620000bb81620001b0565b506001600160a01b03908116608052600954600580546001600160e01b031981166a0100000000000000000000909304909316918217600160a01b6001600160a01b0319909416929092178390046001600160401b031690920217905560405130906200012890620001c2565b6001600160a01b039091168152602001604051809103906000f08015801562000155573d6000803e3d6000fd5b50600380546001600160a01b0319166001600160a01b039290921691909117905560015b60178111620001a9576000818152600a602052604090206064905580620001a081620001d0565b91505062000179565b5062000369565b6002620001be82826200029d565b5050565b612b998062002b4a83390190565b600060018201620001f157634e487b7160e01b600052601160045260246000fd5b5060010190565b634e487b7160e01b600052604160045260246000fd5b600181811c908216806200022357607f821691505b6020821081036200024457634e487b7160e01b600052602260045260246000fd5b50919050565b601f8211156200029857600081815260208120601f850160051c81016020861015620002735750805b601f850160051c820191505b8181101562000294578281556001016200027f565b5050505b505050565b81516001600160401b03811115620002b957620002b9620001f8565b620002d181620002ca84546200020e565b846200024a565b602080601f831160018114620003095760008415620002f05750858301515b600019600386901b1c1916600185901b17855562000294565b600085815260208120601f198616915b828110156200033a5788860151825594840194600190910190840162000319565b5085821015620003595787850151600019600388901b60f8161c191681555b5050505050600190811b01905550565b6080516127be6200038c600039600081816106e9015261072b01526127be6000f3fe6080604052600436106101655760003560e01c8063a0712d68116100d1578063e8a3d4851161008a578063f242432a11610064578063f242432a14610484578063f2c9ecd8146104a4578063f5298aca146104b9578063fc2a88c3146104d957600080fd5b8063e8a3d48514610411578063e985e9c514610426578063eac989f81461046f57600080fd5b8063a0712d6814610311578063a168fa8914610331578063a22cb46514610381578063d8a4676f146103a1578063e0c86289146103cf578063e42c658c146103e457600080fd5b806338ce70261161012357806338ce70261461025c5780633c4ea3851461027c5780634e1273f4146102845780636b20c454146102b15780636c500d8a146102d15780638796ba8c146102f157600080fd5b8062fdd58e1461016a57806301ffc9a71461019d5780630e89341c146101cd57806314d58c10146101fa5780631fe543e31461021a5780632eb2c2d61461023c575b600080fd5b34801561017657600080fd5b5061018a610185366004611c13565b6104ef565b6040519081526020015b60405180910390f35b3480156101a957600080fd5b506101bd6101b8366004611c53565b610588565b6040519015158152602001610194565b3480156101d957600080fd5b506101ed6101e8366004611c70565b6105d8565b6040516101949190611cd9565b34801561020657600080fd5b506101ed610215366004611c70565b61066c565b34801561022657600080fd5b5061023a610235366004611dc4565b6106de565b005b34801561024857600080fd5b5061023a610257366004611e8f565b610766565b34801561026857600080fd5b5061018a610277366004611c13565b6107b2565b61023a61082d565b34801561029057600080fd5b506102a461029f366004611f39565b6109f7565b6040516101949190612035565b3480156102bd57600080fd5b5061023a6102cc366004612048565b610b21565b3480156102dd57600080fd5b5061018a6102ec366004611c70565b610b69565b3480156102fd57600080fd5b5061018a61030c366004611c70565b610b8a565b34801561031d57600080fd5b5061023a61032c366004611c70565b610b9a565b34801561033d57600080fd5b5061036a61034c366004611c70565b60046020526000908152604090205460ff8082169161010090041682565b604080519215158352901515602083015201610194565b34801561038d57600080fd5b5061023a61039c3660046120bc565b610bb9565b3480156103ad57600080fd5b506103c16103bc366004611c70565b610bc4565b6040516101949291906120f8565b3480156103db57600080fd5b5061018a610cb8565b3480156103f057600080fd5b5061018a6103ff366004611c70565b600a6020526000908152604090205481565b34801561041d57600080fd5b506101ed610e74565b34801561043257600080fd5b506101bd61044136600461211b565b6001600160a01b03918216600090815260016020908152604080832093909416825291909152205460ff1690565b34801561047b57600080fd5b506101ed610e94565b34801561049057600080fd5b5061023a61049f36600461214e565b610eb4565b3480156104b057600080fd5b506102a4610ef9565b3480156104c557600080fd5b5061023a6104d43660046121b3565b6110e8565b3480156104e557600080fd5b5061018a60075481565b60006001600160a01b03831661055f5760405162461bcd60e51b815260206004820152602a60248201527f455243313135353a2061646472657373207a65726f206973206e6f742061207660448201526930b634b21037bbb732b960b11b60648201526084015b60405180910390fd5b506000818152602081815260408083206001600160a01b03861684529091529020545b92915050565b60006001600160e01b03198216636cdb3d1360e11b14806105b957506001600160e01b031982166303a24d0760e21b145b8061058257506301ffc9a760e01b6001600160e01b0319831614610582565b6060600280546105e7906121e6565b80601f0160208091040260200160405190810160405280929190818152602001828054610613906121e6565b80156106605780601f1061063557610100808354040283529160200191610660565b820191906000526020600020905b81548152906001019060200180831161064357829003601f168201915b50505050509050919050565b6003546040516303a24d0760e21b8152600481018390526060916001600160a01b031690630e89341c90602401600060405180830381865afa1580156106b6573d6000803e3d6000fd5b505050506040513d6000823e601f3d908101601f191682016040526105829190810190612220565b336001600160a01b037f000000000000000000000000000000000000000000000000000000000000000016146107585760405163073e64fd60e21b81523360048201526001600160a01b037f0000000000000000000000000000000000000000000000000000000000000000166024820152604401610556565b610762828261112b565b5050565b6001600160a01b03851633148061078257506107828533610441565b61079e5760405162461bcd60e51b8152600401610556906122a2565b6107ab85858585856111f1565b5050505050565b600354604051627eeac760e11b81526001600160a01b03848116600483015260248201849052600092169062fdd58e90604401602060405180830381865afa158015610802573d6000803e3d6000fd5b505050506040513d601f19601f8201168201806040525081019061082691906122f0565b9392505050565b600161083a3360016104ef565b10156108885760405162461bcd60e51b815260206004820152601860248201527f496e73756666696369656e74204e46542062616c616e636500000000000000006044820152606401610556565b6108943360018061138d565b600061089e610ef9565b905060005b60058110156107625760008282815181106108c0576108c0612309565b602002602001015190505b6000818152600a6020526040908190205460035491516319b88edb60e01b81526004810184905290916001600160a01b0316906319b88edb90602401602060405180830381865afa158015610924573d6000803e3d6000fd5b505050506040513d601f19601f8201168201806040525081019061094891906122f0565b1061096a57610958600c82612335565b61096390600161235f565b90506108cb565b6003546001600160a01b031663119f2c9f336040516001600160e01b031960e084901b1681526001600160a01b0390911660048201526024810184905260016044820152606401600060405180830381600087803b1580156109cb57600080fd5b505af11580156109df573d6000803e3d6000fd5b505050505080806109ef90612372565b9150506108a3565b60608151835114610a5c5760405162461bcd60e51b815260206004820152602960248201527f455243313135353a206163636f756e747320616e6420696473206c656e677468604482015268040dad2e6dac2e8c6d60bb1b6064820152608401610556565b6000835167ffffffffffffffff811115610a7857610a78611cec565b604051908082528060200260200182016040528015610aa1578160200160208202803683370190505b50905060005b8451811015610b1957610aec858281518110610ac557610ac5612309565b6020026020010151858381518110610adf57610adf612309565b60200260200101516104ef565b828281518110610afe57610afe612309565b6020908102919091010152610b1281612372565b9050610aa7565b509392505050565b6001600160a01b038316331480610b3d5750610b3d8333610441565b610b595760405162461bcd60e51b8152600401610556906122a2565b610b64838383611496565b505050565b600b8181548110610b7957600080fd5b600091825260209091200154905081565b60068181548110610b7957600080fd5b610bb63360018360405180602001604052806000815250611621565b50565b61076233838361172c565b600081815260046020526040812054606090610100900460ff16610c1e5760405162461bcd60e51b81526020600482015260116024820152701c995c5d595cdd081b9bdd08199bdd5b99607a1b6044820152606401610556565b60008381526004602090815260408083208151606081018352815460ff8082161515835261010090910416151581850152600182018054845181870281018701865281815292959394860193830182828015610c9957602002820191906000526020600020905b815481526020019060010190808311610c85575b5050505050815250509050806000015181604001519250925050915091565b6005546008546009546040516305d3b1d360e41b81526004810192909252600160a01b830467ffffffffffffffff166024830152640100000000810461ffff16604483015263ffffffff808216606484015266010000000000009091041660848201526000916001600160a01b031690635d3b1d309060a4016020604051808303816000875af1158015610d50573d6000803e3d6000fd5b505050506040513d601f19601f82011682018060405250810190610d7491906122f0565b6040805160608101825260008082526001602080840182815285518481528083018752858701908152878552600483529590932084518154945161ffff1990951690151561ff00191617610100941515949094029390931783559351805195965092949193610de99391850192910190611b97565b5050600680546001810182556000919091527ff652222313e28459528d920b65115c16c04f3efc82aaedc97be59f3f377c0d3f0182905550600781905560095460408051838152660100000000000090920463ffffffff1660208301527fcc58b13ad3eab50626c6a6300b1d139cd6ebb1688a7cced9461c2f7e762665ee910160405180910390a190565b606060405180608001604052806053815260200161273660539139905090565b60606040518060800160405280604381526020016126f360439139905090565b6001600160a01b038516331480610ed05750610ed08533610441565b610eec5760405162461bcd60e51b8152600401610556906122a2565b6107ab858585858561180c565b60606000610f05610cb8565b60408051600580825260c082019092529192506017916000916020820160a08036833701905050905081610f3a606485612335565b610f449190612335565b610f4f90600161235f565b81600081518110610f6257610f62612309565b6020908102919091010152816064610f7c61271086612335565b610f86919061238b565b610f909190612335565b610f9b90600161235f565b81600181518110610fae57610fae612309565b602090810291909101015281612710610fca620f424086612335565b610fd4919061238b565b610fde9190612335565b610fe990600161235f565b81600281518110610ffc57610ffc612309565b602090810291909101015281620f424061101a6305f5e10086612335565b611024919061238b565b61102e9190612335565b61103990600161235f565b8160038151811061104c5761104c612309565b6020908102919091010152816305f5e10061106c6402540be40086612335565b611076919061238b565b6110809190612335565b61108b90600161235f565b8160048151811061109e5761109e612309565b6020026020010181815250507fc24832fa32021e7321e314c20dc4e9908a8d94633feb10c7deb8484b1c2ee6b2816040516110d99190612035565b60405180910390a19392505050565b6001600160a01b03831633148061110457506111048333610441565b6111205760405162461bcd60e51b8152600401610556906122a2565b610b6483838361138d565b600082815260046020526040902054610100900460ff166111825760405162461bcd60e51b81526020600482015260116024820152701c995c5d595cdd081b9bdd08199bdd5b99607a1b6044820152606401610556565b6000828152600460209081526040909120805460ff19166001908117825583516111b3939290910191840190611b97565b507ffe2e2d779dba245964d4e3ef9b994be63856fd568bf7d3ca9e224755cb1bd54d82826040516111e592919061239f565b60405180910390a15050565b81518351146112125760405162461bcd60e51b8152600401610556906123b8565b6001600160a01b0384166112385760405162461bcd60e51b815260040161055690612400565b3360005b845181101561131f57600085828151811061125957611259612309565b60200260200101519050600085838151811061127757611277612309565b602090810291909101810151600084815280835260408082206001600160a01b038e1683529093529190912054909150818110156112c75760405162461bcd60e51b815260040161055690612445565b6000838152602081815260408083206001600160a01b038e8116855292528083208585039055908b1682528120805484929061130490849061235f565b925050819055505050508061131890612372565b905061123c565b50846001600160a01b0316866001600160a01b0316826001600160a01b03167f4a39dc06d4c0dbc64b70af90fd698a233a518aa5d07e595d983b8c0526c8f7fb878760405161136f92919061248f565b60405180910390a4611385818787878787611936565b505050505050565b6001600160a01b0383166113b35760405162461bcd60e51b8152600401610556906124bd565b3360006113bf84611a91565b905060006113cc84611a91565b60408051602080820183526000918290528882528181528282206001600160a01b038b16835290522054909150848110156114195760405162461bcd60e51b815260040161055690612500565b6000868152602081815260408083206001600160a01b038b81168086529184528285208a8703905582518b81529384018a90529092908816917fc3d58168c5ae7397731d063d5bbf3d657854427343f4c083240f7aacaa2d0f62910160405180910390a46040805160208101909152600090525b50505050505050565b6001600160a01b0383166114bc5760405162461bcd60e51b8152600401610556906124bd565b80518251146114dd5760405162461bcd60e51b8152600401610556906123b8565b604080516020810190915260009081905233905b83518110156115b357600084828151811061150e5761150e612309565b60200260200101519050600084838151811061152c5761152c612309565b602090810291909101810151600084815280835260408082206001600160a01b038c16835290935291909120549091508181101561157c5760405162461bcd60e51b815260040161055690612500565b6000928352602083815260408085206001600160a01b038b16865290915290922091039055806115ab81612372565b9150506114f1565b5060006001600160a01b0316846001600160a01b0316826001600160a01b03167f4a39dc06d4c0dbc64b70af90fd698a233a518aa5d07e595d983b8c0526c8f7fb868660405161160492919061248f565b60405180910390a460408051602081019091526000905250505050565b6001600160a01b0384166116815760405162461bcd60e51b815260206004820152602160248201527f455243313135353a206d696e7420746f20746865207a65726f206164647265736044820152607360f81b6064820152608401610556565b33600061168d85611a91565b9050600061169a85611a91565b90506000868152602081815260408083206001600160a01b038b168452909152812080548792906116cc90849061235f565b909155505060408051878152602081018790526001600160a01b03808a1692600092918716917fc3d58168c5ae7397731d063d5bbf3d657854427343f4c083240f7aacaa2d0f62910160405180910390a461148d83600089898989611adc565b816001600160a01b0316836001600160a01b03160361179f5760405162461bcd60e51b815260206004820152602960248201527f455243313135353a2073657474696e6720617070726f76616c20737461747573604482015268103337b91039b2b63360b91b6064820152608401610556565b6001600160a01b03838116600081815260016020908152604080832094871680845294825291829020805460ff191686151590811790915591519182527f17307eab39ab6107e8899845ad3d59bd9653f200f220920489ca2b5937696c31910160405180910390a3505050565b6001600160a01b0384166118325760405162461bcd60e51b815260040161055690612400565b33600061183e85611a91565b9050600061184b85611a91565b90506000868152602081815260408083206001600160a01b038c1684529091529020548581101561188e5760405162461bcd60e51b815260040161055690612445565b6000878152602081815260408083206001600160a01b038d8116855292528083208985039055908a168252812080548892906118cb90849061235f565b909155505060408051888152602081018890526001600160a01b03808b16928c821692918816917fc3d58168c5ae7397731d063d5bbf3d657854427343f4c083240f7aacaa2d0f62910160405180910390a461192b848a8a8a8a8a611adc565b505050505050505050565b6001600160a01b0384163b156113855760405163bc197c8160e01b81526001600160a01b0385169063bc197c819061197a9089908990889088908890600401612544565b6020604051808303816000875af19250505080156119b5575060408051601f3d908101601f191682019092526119b2918101906125a2565b60015b611a61576119c16125bf565b806308c379a0036119fa57506119d56125db565b806119e057506119fc565b8060405162461bcd60e51b81526004016105569190611cd9565b505b60405162461bcd60e51b815260206004820152603460248201527f455243313135353a207472616e7366657220746f206e6f6e2d455243313135356044820152732932b1b2b4bb32b91034b6b83632b6b2b73a32b960611b6064820152608401610556565b6001600160e01b0319811663bc197c8160e01b1461148d5760405162461bcd60e51b815260040161055690612665565b60408051600180825281830190925260609160009190602080830190803683370190505090508281600081518110611acb57611acb612309565b602090810291909101015292915050565b6001600160a01b0384163b156113855760405163f23a6e6160e01b81526001600160a01b0385169063f23a6e6190611b2090899089908890889088906004016126ad565b6020604051808303816000875af1925050508015611b5b575060408051601f3d908101601f19168201909252611b58918101906125a2565b60015b611b67576119c16125bf565b6001600160e01b0319811663f23a6e6160e01b1461148d5760405162461bcd60e51b815260040161055690612665565b828054828255906000526020600020908101928215611bd2579160200282015b82811115611bd2578251825591602001919060010190611bb7565b50611bde929150611be2565b5090565b5b80821115611bde5760008155600101611be3565b80356001600160a01b0381168114611c0e57600080fd5b919050565b60008060408385031215611c2657600080fd5b611c2f83611bf7565b946020939093013593505050565b6001600160e01b031981168114610bb657600080fd5b600060208284031215611c6557600080fd5b813561082681611c3d565b600060208284031215611c8257600080fd5b5035919050565b60005b83811015611ca4578181015183820152602001611c8c565b50506000910152565b60008151808452611cc5816020860160208601611c89565b601f01601f19169290920160200192915050565b6020815260006108266020830184611cad565b634e487b7160e01b600052604160045260246000fd5b601f8201601f1916810167ffffffffffffffff81118282101715611d2857611d28611cec565b6040525050565b600067ffffffffffffffff821115611d4957611d49611cec565b5060051b60200190565b600082601f830112611d6457600080fd5b81356020611d7182611d2f565b604051611d7e8282611d02565b83815260059390931b8501820192828101915086841115611d9e57600080fd5b8286015b84811015611db95780358352918301918301611da2565b509695505050505050565b60008060408385031215611dd757600080fd5b82359150602083013567ffffffffffffffff811115611df557600080fd5b611e0185828601611d53565b9150509250929050565b600067ffffffffffffffff821115611e2557611e25611cec565b50601f01601f191660200190565b600082601f830112611e4457600080fd5b8135611e4f81611e0b565b604051611e5c8282611d02565b828152856020848701011115611e7157600080fd5b82602086016020830137600092810160200192909252509392505050565b600080600080600060a08688031215611ea757600080fd5b611eb086611bf7565b9450611ebe60208701611bf7565b9350604086013567ffffffffffffffff80821115611edb57600080fd5b611ee789838a01611d53565b94506060880135915080821115611efd57600080fd5b611f0989838a01611d53565b93506080880135915080821115611f1f57600080fd5b50611f2c88828901611e33565b9150509295509295909350565b60008060408385031215611f4c57600080fd5b823567ffffffffffffffff80821115611f6457600080fd5b818501915085601f830112611f7857600080fd5b81356020611f8582611d2f565b604051611f928282611d02565b83815260059390931b8501820192828101915089841115611fb257600080fd5b948201945b83861015611fd757611fc886611bf7565b82529482019490820190611fb7565b96505086013592505080821115611fed57600080fd5b50611e0185828601611d53565b600081518084526020808501945080840160005b8381101561202a5781518752958201959082019060010161200e565b509495945050505050565b6020815260006108266020830184611ffa565b60008060006060848603121561205d57600080fd5b61206684611bf7565b9250602084013567ffffffffffffffff8082111561208357600080fd5b61208f87838801611d53565b935060408601359150808211156120a557600080fd5b506120b286828701611d53565b9150509250925092565b600080604083850312156120cf57600080fd5b6120d883611bf7565b9150602083013580151581146120ed57600080fd5b809150509250929050565b82151581526040602082015260006121136040830184611ffa565b949350505050565b6000806040838503121561212e57600080fd5b61213783611bf7565b915061214560208401611bf7565b90509250929050565b600080600080600060a0868803121561216657600080fd5b61216f86611bf7565b945061217d60208701611bf7565b93506040860135925060608601359150608086013567ffffffffffffffff8111156121a757600080fd5b611f2c88828901611e33565b6000806000606084860312156121c857600080fd5b6121d184611bf7565b95602085013595506040909401359392505050565b600181811c908216806121fa57607f821691505b60208210810361221a57634e487b7160e01b600052602260045260246000fd5b50919050565b60006020828403121561223257600080fd5b815167ffffffffffffffff81111561224957600080fd5b8201601f8101841361225a57600080fd5b805161226581611e0b565b6040516122728282611d02565b82815286602084860101111561228757600080fd5b612298836020830160208701611c89565b9695505050505050565b6020808252602e908201527f455243313135353a2063616c6c6572206973206e6f7420746f6b656e206f776e60408201526d195c881bdc88185c1c1c9bdd995960921b606082015260800190565b60006020828403121561230257600080fd5b5051919050565b634e487b7160e01b600052603260045260246000fd5b634e487b7160e01b600052601260045260246000fd5b6000826123445761234461231f565b500690565b634e487b7160e01b600052601160045260246000fd5b8082018082111561058257610582612349565b60006001820161238457612384612349565b5060010190565b60008261239a5761239a61231f565b500490565b8281526040602082015260006121136040830184611ffa565b60208082526028908201527f455243313135353a2069647320616e6420616d6f756e7473206c656e677468206040820152670dad2e6dac2e8c6d60c31b606082015260800190565b60208082526025908201527f455243313135353a207472616e7366657220746f20746865207a65726f206164604082015264647265737360d81b606082015260800190565b6020808252602a908201527f455243313135353a20696e73756666696369656e742062616c616e636520666f60408201526939103a3930b739b332b960b11b606082015260800190565b6040815260006124a26040830185611ffa565b82810360208401526124b48185611ffa565b95945050505050565b60208082526023908201527f455243313135353a206275726e2066726f6d20746865207a65726f206164647260408201526265737360e81b606082015260800190565b60208082526024908201527f455243313135353a206275726e20616d6f756e7420657863656564732062616c604082015263616e636560e01b606082015260800190565b6001600160a01b0386811682528516602082015260a06040820181905260009061257090830186611ffa565b82810360608401526125828186611ffa565b905082810360808401526125968185611cad565b98975050505050505050565b6000602082840312156125b457600080fd5b815161082681611c3d565b600060033d11156125d85760046000803e5060005160e01c5b90565b600060443d10156125e95790565b6040516003193d81016004833e81513d67ffffffffffffffff816024840111818411171561261957505050505090565b82850191508151818111156126315750505050505090565b843d870101602082850101111561264b5750505050505090565b61265a60208286010187611d02565b509095945050505050565b60208082526028908201527f455243313135353a204552433131353552656365697665722072656a656374656040820152676420746f6b656e7360c01b606082015260800190565b6001600160a01b03868116825285166020820152604081018490526060810183905260a0608082018190526000906126e790830184611cad565b97965050505050505056fe68747470733a2f2f697066732e696f2f697066732f516d6441764778594d73437856716a473237466b72446d42616f69726d64445569466e775378645731644152375268747470733a2f2f697066732e696f2f697066732f516d63614c61395a6872576b31533941756534706945765667454a33475844626d5348474745676b4b3534584a392f636f6c6c656374696f6e2e6a736f6ea2646970667358221220fdf0d176c6c0e3605c5502195057ac9a591c3ffa604bb1f95781686a62acabe864736f6c6343000814003360806040523480156200001157600080fd5b5060405162002b9938038062002b99833981016040819052620000349162000211565b6040518060800160405280604d815260200162002b4c604d91396200005981620000be565b50600580546001600160a01b03191633179055620000987f9f2df0fed2c77648de5860a4cc508cd0818c85b8b8a1ab4ceeef8d981c8956a682620000d0565b600680546001600160a01b0319166001600160a01b0392909216919091179055620003b3565b6002620000cc8282620002e7565b5050565b620000dc8282620000fb565b6000828152600460205260409020620000f690826200019f565b505050565b60008281526003602090815260408083206001600160a01b038516845290915290205460ff16620000cc5760008281526003602090815260408083206001600160a01b03851684529091529020805460ff191660011790556200015b3390565b6001600160a01b0316816001600160a01b0316837f2f8788117e7eff1d82e926ec794901d17c78024a50270940304540a733656f0d60405160405180910390a45050565b6000620001b6836001600160a01b038416620001bf565b90505b92915050565b60008181526001830160205260408120546200020857508154600181810184556000848152602080822090930184905584548482528286019093526040902091909155620001b9565b506000620001b9565b6000602082840312156200022457600080fd5b81516001600160a01b03811681146200023c57600080fd5b9392505050565b634e487b7160e01b600052604160045260246000fd5b600181811c908216806200026e57607f821691505b6020821081036200028f57634e487b7160e01b600052602260045260246000fd5b50919050565b601f821115620000f657600081815260208120601f850160051c81016020861015620002be5750805b601f850160051c820191505b81811015620002df57828155600101620002ca565b505050505050565b81516001600160401b0381111562000303576200030362000243565b6200031b8162000314845462000259565b8462000295565b602080601f8311600181146200035357600084156200033a5750858301515b600019600386901b1c1916600185901b178555620002df565b600085815260208120601f198616915b82811015620003845788860151825594840194600190910190840162000363565b5085821015620003a35787850151600019600388901b60f8161c191681555b5050505050600190811b01905550565b61278980620003c36000396000f3fe608060405234801561001057600080fd5b50600436106101575760003560e01c80637caf7b3c116100c3578063d53913931161007c578063d53913931461031b578063d547741f14610342578063e8a3d48514610355578063e985e9c51461035d578063f242432a14610399578063fba0ee64146103ac57600080fd5b80637caf7b3c1461029c5780639010d07c146102af57806391d14854146102da578063a217fddf146102ed578063a22cb465146102f5578063ca15c8731461030857600080fd5b8063248a9ca311610115578063248a9ca31461020d5780632eb2c2d6146102305780632f2ff15d1461024357806336568abe146102565780634e1273f41461026957806372fdfc211461028957600080fd5b8062fdd58e1461015c57806301ffc9a7146101825780630e89341c146101a55780630febdd49146101c5578063119f2c9f146101da57806319b88edb146101ed575b600080fd5b61016f61016a366004611a7f565b6103bf565b6040519081526020015b60405180910390f35b610195610190366004611abf565b6103ea565b6040519015158152602001610179565b6101b86101b3366004611adc565b6103f5565b6040516101799190611b45565b6101d86101d3366004611b58565b610426565b005b6101d86101e8366004611b9a565b61057d565b61016f6101fb366004611adc565b60009081526007602052604090205490565b61016f61021b366004611adc565b60009081526003602052604090206001015490565b6101d861023e366004611d20565b610670565b6101d8610251366004611dc9565b6106bc565b6101d8610264366004611dc9565b6106e6565b61027c610277366004611df5565b610764565b6040516101799190611efa565b6101b8610297366004611adc565b61088d565b6101d86102aa366004611f0d565b610927565b6102c26102bd366004611f5d565b61097b565b6040516001600160a01b039091168152602001610179565b6101956102e8366004611dc9565b61099a565b61016f600081565b6101d8610303366004611f7f565b6109c5565b61016f610316366004611adc565b6109d0565b61016f7f9f2df0fed2c77648de5860a4cc508cd0818c85b8b8a1ab4ceeef8d981c8956a681565b6101d8610350366004611dc9565b6109e7565b6101b8610a0c565b61019561036b366004611fbb565b6001600160a01b03918216600090815260016020908152604080832093909416825291909152205460ff1690565b6101d86103a7366004611fe5565b610a2c565b6101d86103ba366004612049565b610a71565b6001600160a01b03821660009081526008602090815260408083208484529091529020545b92915050565b60006103e482610c54565b606061040082610c79565b60405160200161041091906120cd565b6040516020818303038152906040529050919050565b336001600160a01b03851614806104425750610442843361036b565b6104675760405162461bcd60e51b815260040161045e90612154565b60405180910390fd5b6001600160a01b03831661048d5760405162461bcd60e51b815260040161045e9061219d565b6001600160a01b0384166000908152600860209081526040808320858452909152902054818110156104d15760405162461bcd60e51b815260040161045e906121e2565b6104db8282612242565b6001600160a01b038087166000908152600860208181526040808420898552825280842095909555928816825282528281208682529091529081208054849290610526908490612255565b909155505060408051848152602081018490526001600160a01b03868116929088169133917fc3d58168c5ae7397731d063d5bbf3d657854427343f4c083240f7aacaa2d0f62910160405180910390a45050505050565b6105a77f9f2df0fed2c77648de5860a4cc508cd0818c85b8b8a1ab4ceeef8d981c8956a63361099a565b6105f35760405162461bcd60e51b815260206004820152601960248201527f4552524f525f554e415554484f52495a45445f4d494e54455200000000000000604482015260640161045e565b60008281526007602052604081208054839290610611908490612255565b9250508190555061063383838360405180602001604052806000815250610d0b565b6001600160a01b038316600090815260086020908152604080832085845290915281208054839290610666908490612255565b9091555050505050565b6001600160a01b03851633148061068c575061068c853361036b565b6106a85760405162461bcd60e51b815260040161045e90612268565b6106b58585858585610e1f565b5050505050565b6000828152600360205260409020600101546106d781610fbb565b6106e18383610fc8565b505050565b6001600160a01b03811633146107565760405162461bcd60e51b815260206004820152602f60248201527f416363657373436f6e74726f6c3a2063616e206f6e6c792072656e6f756e636560448201526e103937b632b9903337b91039b2b63360891b606482015260840161045e565b6107608282610fea565b5050565b606081518351146107c95760405162461bcd60e51b815260206004820152602960248201527f455243313135353a206163636f756e747320616e6420696473206c656e677468604482015268040dad2e6dac2e8c6d60bb1b606482015260840161045e565b600083516001600160401b038111156107e4576107e4611bcd565b60405190808252806020026020018201604052801561080d578160200160208202803683370190505b50905060005b845181101561088557610858858281518110610831576108316122b6565b602002602001015185838151811061084b5761084b6122b6565b60200260200101516103bf565b82828151811061086a5761086a6122b6565b602090810291909101015261087e816122cc565b9050610813565b509392505050565b600960205260009081526040902080546108a6906122e5565b80601f01602080910402602001604051908101604052809291908181526020018280546108d2906122e5565b801561091f5780601f106108f45761010080835404028352916020019161091f565b820191906000526020600020905b81548152906001019060200180831161090257829003601f168201915b505050505081565b6040805180820190915260048152634e616d6560e01b6020808301919091526001600052600990527f92e85d02570a8092d09a6e3a57665bc3815a2699a4074001bf1ccabf660f5a36906106e19082612365565b6000828152600460205260408120610993908361100c565b9392505050565b60009182526003602090815260408084206001600160a01b0393909316845291905290205460ff1690565b610760338383611018565b60008181526004602052604081206103e4906110f8565b600082815260036020526040902060010154610a0281610fbb565b6106e18383610fea565b606060405180608001604052806053815260200161270160539139905090565b6001600160a01b038516331480610a485750610a48853361036b565b610a645760405162461bcd60e51b815260040161045e90612268565b6106b58585858585611102565b336001600160a01b0385161480610a8d5750610a8d843361036b565b610aa95760405162461bcd60e51b815260040161045e90612154565b6001600160a01b038316610acf5760405162461bcd60e51b815260040161045e9061219d565b8051825114610af05760405162461bcd60e51b815260040161045e90612424565b60005b8251811015610bf0576000838281518110610b1057610b106122b6565b602002602001015190506000838381518110610b2e57610b2e6122b6565b6020908102919091018101516001600160a01b0389166000908152600883526040808220868352909352919091205490915081811015610b805760405162461bcd60e51b815260040161045e906121e2565b610b8a8282612242565b6001600160a01b03808a166000908152600860208181526040808420898552825280842095909555928b16825282528281208682529091529081208054849290610bd5908490612255565b9250508190555050505080610be9906122cc565b9050610af3565b50826001600160a01b0316846001600160a01b0316610c0c3390565b6001600160a01b03167f4a39dc06d4c0dbc64b70af90fd698a233a518aa5d07e595d983b8c0526c8f7fb8585604051610c4692919061246c565b60405180910390a450505050565b60006001600160e01b03198216635a05180f60e01b14806103e457506103e48261122c565b60606000610c8683611251565b60010190506000816001600160401b03811115610ca557610ca5611bcd565b6040519080825280601f01601f191660200182016040528015610ccf576020820181803683370190505b5090508181016020015b600019016f181899199a1a9b1b9c1cb0b131b232b360811b600a86061a8153600a8504945084610cd957509392505050565b6001600160a01b038416610d6b5760405162461bcd60e51b815260206004820152602160248201527f455243313135353a206d696e7420746f20746865207a65726f206164647265736044820152607360f81b606482015260840161045e565b336000610d7785611329565b90506000610d8485611329565b90506000868152602081815260408083206001600160a01b038b16845290915281208054879290610db6908490612255565b909155505060408051878152602081018790526001600160a01b03808a1692600092918716917fc3d58168c5ae7397731d063d5bbf3d657854427343f4c083240f7aacaa2d0f62910160405180910390a4610e1683600089898989611374565b50505050505050565b8151835114610e405760405162461bcd60e51b815260040161045e90612424565b6001600160a01b038416610e665760405162461bcd60e51b815260040161045e9061219d565b3360005b8451811015610f4d576000858281518110610e8757610e876122b6565b602002602001015190506000858381518110610ea557610ea56122b6565b602090810291909101810151600084815280835260408082206001600160a01b038e168352909352919091205490915081811015610ef55760405162461bcd60e51b815260040161045e906121e2565b6000838152602081815260408083206001600160a01b038e8116855292528083208585039055908b16825281208054849290610f32908490612255565b9250508190555050505080610f46906122cc565b9050610e6a565b50846001600160a01b0316866001600160a01b0316826001600160a01b03167f4a39dc06d4c0dbc64b70af90fd698a233a518aa5d07e595d983b8c0526c8f7fb8787604051610f9d92919061246c565b60405180910390a4610fb38187878787876114cf565b505050505050565b610fc5813361158a565b50565b610fd282826115e3565b60008281526004602052604090206106e19082611669565b610ff4828261167e565b60008281526004602052604090206106e190826116e5565b600061099383836116fa565b816001600160a01b0316836001600160a01b03160361108b5760405162461bcd60e51b815260206004820152602960248201527f455243313135353a2073657474696e6720617070726f76616c20737461747573604482015268103337b91039b2b63360b91b606482015260840161045e565b6001600160a01b03838116600081815260016020908152604080832094871680845294825291829020805460ff191686151590811790915591519182527f17307eab39ab6107e8899845ad3d59bd9653f200f220920489ca2b5937696c31910160405180910390a3505050565b60006103e4825490565b6001600160a01b0384166111285760405162461bcd60e51b815260040161045e9061219d565b33600061113485611329565b9050600061114185611329565b90506000868152602081815260408083206001600160a01b038c168452909152902054858110156111845760405162461bcd60e51b815260040161045e906121e2565b6000878152602081815260408083206001600160a01b038d8116855292528083208985039055908a168252812080548892906111c1908490612255565b909155505060408051888152602081018890526001600160a01b03808b16928c821692918816917fc3d58168c5ae7397731d063d5bbf3d657854427343f4c083240f7aacaa2d0f62910160405180910390a4611221848a8a8a8a8a611374565b505050505050505050565b60006001600160e01b03198216637965db0b60e01b14806103e457506103e482611724565b60008072184f03e93ff9f4daa797ed6e38ed64bf6a1f0160401b83106112905772184f03e93ff9f4daa797ed6e38ed64bf6a1f0160401b830492506040015b6d04ee2d6d415b85acef810000000083106112bc576d04ee2d6d415b85acef8100000000830492506020015b662386f26fc1000083106112da57662386f26fc10000830492506010015b6305f5e10083106112f2576305f5e100830492506008015b612710831061130657612710830492506004015b60648310611318576064830492506002015b600a83106103e45760010192915050565b60408051600180825281830190925260609160009190602080830190803683370190505090508281600081518110611363576113636122b6565b602090810291909101015292915050565b6001600160a01b0384163b15610fb35760405163f23a6e6160e01b81526001600160a01b0385169063f23a6e61906113b8908990899088908890889060040161249a565b6020604051808303816000875af19250505080156113f3575060408051601f3d908101601f191682019092526113f0918101906124df565b60015b61149f576113ff6124fc565b806308c379a0036114385750611413612518565b8061141e575061143a565b8060405162461bcd60e51b815260040161045e9190611b45565b505b60405162461bcd60e51b815260206004820152603460248201527f455243313135353a207472616e7366657220746f206e6f6e2d455243313135356044820152732932b1b2b4bb32b91034b6b83632b6b2b73a32b960611b606482015260840161045e565b6001600160e01b0319811663f23a6e6160e01b14610e165760405162461bcd60e51b815260040161045e906125a1565b6001600160a01b0384163b15610fb35760405163bc197c8160e01b81526001600160a01b0385169063bc197c819061151390899089908890889088906004016125e9565b6020604051808303816000875af192505050801561154e575060408051601f3d908101601f1916820190925261154b918101906124df565b60015b61155a576113ff6124fc565b6001600160e01b0319811663bc197c8160e01b14610e165760405162461bcd60e51b815260040161045e906125a1565b611594828261099a565b610760576115a181611774565b6115ac836020611786565b6040516020016115bd929190612647565b60408051601f198184030181529082905262461bcd60e51b825261045e91600401611b45565b6115ed828261099a565b6107605760008281526003602090815260408083206001600160a01b03851684529091529020805460ff191660011790556116253390565b6001600160a01b0316816001600160a01b0316837f2f8788117e7eff1d82e926ec794901d17c78024a50270940304540a733656f0d60405160405180910390a45050565b6000610993836001600160a01b038416611921565b611688828261099a565b156107605760008281526003602090815260408083206001600160a01b0385168085529252808320805460ff1916905551339285917ff6391f5c32d9c69d2a47ea670b442974b53935d1edc7fd64eb21e047a839171b9190a45050565b6000610993836001600160a01b038416611970565b6000826000018281548110611711576117116122b6565b9060005260206000200154905092915050565b60006001600160e01b03198216636cdb3d1360e11b148061175557506001600160e01b031982166303a24d0760e21b145b806103e457506301ffc9a760e01b6001600160e01b03198316146103e4565b60606103e46001600160a01b03831660145b606060006117958360026126bc565b6117a0906002612255565b6001600160401b038111156117b7576117b7611bcd565b6040519080825280601f01601f1916602001820160405280156117e1576020820181803683370190505b509050600360fc1b816000815181106117fc576117fc6122b6565b60200101906001600160f81b031916908160001a905350600f60fb1b8160018151811061182b5761182b6122b6565b60200101906001600160f81b031916908160001a905350600061184f8460026126bc565b61185a906001612255565b90505b60018111156118d2576f181899199a1a9b1b9c1cb0b131b232b360811b85600f166010811061188e5761188e6122b6565b1a60f81b8282815181106118a4576118a46122b6565b60200101906001600160f81b031916908160001a90535060049490941c936118cb816126d3565b905061185d565b5083156109935760405162461bcd60e51b815260206004820181905260248201527f537472696e67733a20686578206c656e67746820696e73756666696369656e74604482015260640161045e565b6000818152600183016020526040812054611968575081546001818101845560008481526020808220909301849055845484825282860190935260409020919091556103e4565b5060006103e4565b60008181526001830160205260408120548015611a59576000611994600183612242565b85549091506000906119a890600190612242565b9050818114611a0d5760008660000182815481106119c8576119c86122b6565b90600052602060002001549050808760000184815481106119eb576119eb6122b6565b6000918252602080832090910192909255918252600188019052604090208390555b8554869080611a1e57611a1e6126ea565b6001900381819060005260206000200160009055905585600101600086815260200190815260200160002060009055600193505050506103e4565b60009150506103e4565b80356001600160a01b0381168114611a7a57600080fd5b919050565b60008060408385031215611a9257600080fd5b611a9b83611a63565b946020939093013593505050565b6001600160e01b031981168114610fc557600080fd5b600060208284031215611ad157600080fd5b813561099381611aa9565b600060208284031215611aee57600080fd5b5035919050565b60005b83811015611b10578181015183820152602001611af8565b50506000910152565b60008151808452611b31816020860160208601611af5565b601f01601f19169290920160200192915050565b6020815260006109936020830184611b19565b60008060008060808587031215611b6e57600080fd5b611b7785611a63565b9350611b8560208601611a63565b93969395505050506040820135916060013590565b600080600060608486031215611baf57600080fd5b611bb884611a63565b95602085013595506040909401359392505050565b634e487b7160e01b600052604160045260246000fd5b601f8201601f191681016001600160401b0381118282101715611c0857611c08611bcd565b6040525050565b60006001600160401b03821115611c2857611c28611bcd565b5060051b60200190565b600082601f830112611c4357600080fd5b81356020611c5082611c0f565b604051611c5d8282611be3565b83815260059390931b8501820192828101915086841115611c7d57600080fd5b8286015b84811015611c985780358352918301918301611c81565b509695505050505050565b60006001600160401b03831115611cbc57611cbc611bcd565b604051611cd3601f8501601f191660200182611be3565b809150838152848484011115611ce857600080fd5b83836020830137600060208583010152509392505050565b600082601f830112611d1157600080fd5b61099383833560208501611ca3565b600080600080600060a08688031215611d3857600080fd5b611d4186611a63565b9450611d4f60208701611a63565b935060408601356001600160401b0380821115611d6b57600080fd5b611d7789838a01611c32565b94506060880135915080821115611d8d57600080fd5b611d9989838a01611c32565b93506080880135915080821115611daf57600080fd5b50611dbc88828901611d00565b9150509295509295909350565b60008060408385031215611ddc57600080fd5b82359150611dec60208401611a63565b90509250929050565b60008060408385031215611e0857600080fd5b82356001600160401b0380821115611e1f57600080fd5b818501915085601f830112611e3357600080fd5b81356020611e4082611c0f565b604051611e4d8282611be3565b83815260059390931b8501820192828101915089841115611e6d57600080fd5b948201945b83861015611e9257611e8386611a63565b82529482019490820190611e72565b96505086013592505080821115611ea857600080fd5b50611eb585828601611c32565b9150509250929050565b600081518084526020808501945080840160005b83811015611eef57815187529582019590820190600101611ed3565b509495945050505050565b6020815260006109936020830184611ebf565b60008060408385031215611f2057600080fd5b8235915060208301356001600160401b03811115611f3d57600080fd5b8301601f81018513611f4e57600080fd5b611eb585823560208401611ca3565b60008060408385031215611f7057600080fd5b50508035926020909101359150565b60008060408385031215611f9257600080fd5b611f9b83611a63565b915060208301358015158114611fb057600080fd5b809150509250929050565b60008060408385031215611fce57600080fd5b611fd783611a63565b9150611dec60208401611a63565b600080600080600060a08688031215611ffd57600080fd5b61200686611a63565b945061201460208701611a63565b9350604086013592506060860135915060808601356001600160401b0381111561203d57600080fd5b611dbc88828901611d00565b6000806000806080858703121561205f57600080fd5b61206885611a63565b935061207660208601611a63565b925060408501356001600160401b038082111561209257600080fd5b61209e88838901611c32565b935060608701359150808211156120b457600080fd5b506120c187828801611c32565b91505092959194509250565b7f68747470733a2f2f697066732e696f2f697066732f516d63614c61395a68725781527f6b31533941756534706945765667454a33475844626d5348474745676b4b3534602082015263584a392f60e01b604082015260008251612138816044850160208701611af5565b64173539b7b760d91b6044939091019283015250604901919050565b60208082526029908201527f455243313135353a2063616c6c6572206973206e6f74206f776e6572206e6f7260408201526808185c1c1c9bdd995960ba1b606082015260800190565b60208082526025908201527f455243313135353a207472616e7366657220746f20746865207a65726f206164604082015264647265737360d81b606082015260800190565b6020808252602a908201527f455243313135353a20696e73756666696369656e742062616c616e636520666f60408201526939103a3930b739b332b960b11b606082015260800190565b634e487b7160e01b600052601160045260246000fd5b818103818111156103e4576103e461222c565b808201808211156103e4576103e461222c565b6020808252602e908201527f455243313135353a2063616c6c6572206973206e6f7420746f6b656e206f776e60408201526d195c881bdc88185c1c1c9bdd995960921b606082015260800190565b634e487b7160e01b600052603260045260246000fd5b6000600182016122de576122de61222c565b5060010190565b600181811c908216806122f957607f821691505b60208210810361231957634e487b7160e01b600052602260045260246000fd5b50919050565b601f8211156106e157600081815260208120601f850160051c810160208610156123465750805b601f850160051c820191505b81811015610fb357828155600101612352565b81516001600160401b0381111561237e5761237e611bcd565b6123928161238c84546122e5565b8461231f565b602080601f8311600181146123c757600084156123af5750858301515b600019600386901b1c1916600185901b178555610fb3565b600085815260208120601f198616915b828110156123f6578886015182559484019460019091019084016123d7565b50858210156124145787850151600019600388901b60f8161c191681555b5050505050600190811b01905550565b60208082526028908201527f455243313135353a2069647320616e6420616d6f756e7473206c656e677468206040820152670dad2e6dac2e8c6d60c31b606082015260800190565b60408152600061247f6040830185611ebf565b82810360208401526124918185611ebf565b95945050505050565b6001600160a01b03868116825285166020820152604081018490526060810183905260a0608082018190526000906124d490830184611b19565b979650505050505050565b6000602082840312156124f157600080fd5b815161099381611aa9565b600060033d11156125155760046000803e5060005160e01c5b90565b600060443d10156125265790565b6040516003193d81016004833e81513d6001600160401b03816024840111818411171561255557505050505090565b828501915081518181111561256d5750505050505090565b843d87010160208285010111156125875750505050505090565b61259660208286010187611be3565b509095945050505050565b60208082526028908201527f455243313135353a204552433131353552656365697665722072656a656374656040820152676420746f6b656e7360c01b606082015260800190565b6001600160a01b0386811682528516602082015260a06040820181905260009061261590830186611ebf565b82810360608401526126278186611ebf565b9050828103608084015261263b8185611b19565b98975050505050505050565b7f416363657373436f6e74726f6c3a206163636f756e742000000000000000000081526000835161267f816017850160208801611af5565b7001034b99036b4b9b9b4b733903937b6329607d1b60179184019182015283516126b0816028840160208801611af5565b01602801949350505050565b80820281158282048414176103e4576103e461222c565b6000816126e2576126e261222c565b506000190190565b634e487b7160e01b600052603160045260246000fdfe68747470733a2f2f697066732e696f2f697066732f516d63614c61395a6872576b31533941756534706945765667454a33475844626d5348474745676b4b3534584a392f636f6c6c656374696f6e2e6a736f6ea26469706673582212204ec62d1430f38429633befc15de68c64e38a1d84996a0a3321bf4848b95ffbf164736f6c6343000814003368747470733a2f2f697066732e696f2f697066732f516d63614c61395a6872576b31533941756534706945765667454a33475844626d5348474745676b4b3534584a392f7b69647d2e6a736f6e68747470733a2f2f697066732e696f2f697066732f516d51586b7247557144763153477a79693732387179374365584b5a613232506a515368466f5a4148533954324b",
  "linkReferences": {},
  "deployedLinkReferences": {}
}